:100642004572726F720048756D203D2025642E251B
:10065200640054656D203D2025642E2564002564C8
:040662002020200034
:08074000020A0000021400008F
:1006FE00758901758CB8758A0CD28C308DFDC28CC3
:03070E00C28D2277
:10071100758901758CFF758AF1D28C308DFDC28C83
:03072100C28D2264
:08074900C2851206FED28522D2
:0A0736002085FD3085FD2085FD22A1
:1005F100E4FFFEFDFC3085FD120711EF25E0FFEE63
:1006010033FE308506EF4401FF80002085FD0DBDDE
:0906110000010CED64084C70DCE2
:01061A0022BD
:10035F001205C51207491207361205F18E128F13B7
:10036F001205F18E0E8F0F1205F18E108F111205DF
:10037F00F18E0C8F0D1205F18E088F09E513250FE5
:10038F00FFE512350EFEE5112FFFE5103EFEE50DE0
:10039F002FFFE50C3EFEEF65097003EE6508600B5D
:1003AF007BFF7A0679427D010204447539FF753A65
:1003BF0006753B4885123C85133D850E3E850F3FE4
:1003CF007B007A00792212005F7B007A0079227D10
:1003DF00017F011206C87539FF753A06753B5485C2
:1003EF00103C85113D850C3E850D3F7B007A0079D1
:1003FF002212005F7B007A0079227D017F021206B4
:10040F00C87FDF1207247E007F147D007B007A00F7
:10041F0079221204807539FF753A06753B6085089D
:10042F003C85093D7B007A00792212005F7B007AC0
:10043F000079227D0D7F011206C87F647E001206AF
:04044F0089020362B9
:10068900E4FDFCC3ED9FEC9E5015E4FBFA0BBB00A7
:0F069900010AEB647B4A70F50DBD00010C80E493
:0106A800222F
:10059900EF540FC454F0FEEF54F0C4540F4EFF54FF
:1005A9003325E025E0FEEF54CC1313543F4EFF549E
:0C05B9005525E0FEEF54AAC3134EFF22AC
:1006A900AD07C2861205998FA0C287D287EDD39470
:0F06B9000250047F0280027F017E001206892218
:10072400D2861205998FA0C287D2877F017E0002EC
:02073400068934
:0206E7008B1670
:1006E900BF01047F8080027FC0EF2D14FF1206A98D
:0506F900AF160207240A
:060666008B398A3A893B42
:10066C00E4F53CAB39AA3AA93B853C827583001270
:0C067C000453FF6007120724053C80E7D0
:01068800224F
:0606C8008B368A378938E9
:1006CE00BF01047F8080027FC0EF2D14FF1206A9A8
:0906DE00AB36AA37A93802066602
:1005C5007F301206A97F057E001206897F3012064C
:1005D500A97F017E001206897F301206A97F381295
:0C05E50006A97F011206A97F0C0206A9DE
:0300000002050DE9
:0C050D00787FE4F6D8FD758149020554A2
:10045300BB010CE58229F582E5833AF583E022505E
:1004630006E92582F8E622BBFE06E92582F8E222A8
:0D047300E58229F582E5833AF583E49322C2
:10000300E5452439F8E60545227836300702783984
:10001300E475F0011204D70204AC2000EB7F2ED26A
:10002300008018EF540F2490D43440D4FF30040BD5
:10003300EF24BFB41A0050032461FFE546600215A4
:10004300460549E5497002054830070D7836E475E1
:10005300F0011204D7EF0204C502061B7403D20792
:100063008003E4C207F5458B368A378938E4F546C1
:10007300F548F549E54660077F2012003E80F57597
:1000830047FFC201C200C202C203C205C206C208C0
:1000930012000CFF700D3007057F0012004FAF49AF
:1000A300AE4822B4255FC2D5C20412000CFF24D08F
:1000B300B40A00501A75F00A784630D50508B6FF21
:1000C3000106C6A426F620D5047002D20380D924E3
:1000D300CFB41A00EF5004C2E5D20402024FD2019A
:1000E30080C6D20080C0D20280BCD2D580BAD205ED
:1000F30080B47F2012003E2002077401B546004001
:10010300F1120003FF12003E020077D208D20680EC
:1001130095120003FB120003FA120003F94A4B7015
:100123000679207A037BFF20022EE546602A7E00B3
:100133008E8275830012045360060EEE654770F0DD
:10014300C2D5EBC0E0EAC0E0E9C0E0EE120296D00F
:10015300E0F9D0E0FAD0E0FB1204ACFF60AAEBC0F8
:10016300E0EAC0E0E9C0E012003ED0E02401F9D0AB
:10017300E03400FAD0E0FBE5470460DCD547D980E2
:10018300877BFF7A027992D202809C791080027970
:1001930008C206C2088008D2D5790A8004790AC247
:1001A300D5E547047002F547E4FAFDFEFF120003AC
:1001B300FC7B08200113120003FD7B1030000A12A0
:1001C3000003FE120003FF7B20EC3382D592D5504F
:1001D30013C3E43000069FFFE49EFEE42001039D69
:1001E300FDE49CFCE4CBF8C201EC700CCFCECDCC8B
:1001F300E824F8F870F38017C3EF33FFEE33FEED16
:1002030033FDEC33FCEB33FB994002FB0FD8E9EBF6
:10021300300105F8D0E0C448B201C0E00AEC4D4E0D
:100223004F78207B0070C2EAB5470040BCC0E012A3
:100233000298D0F0D0E0200104C4C0E0C4B201C0F1
:10024300F0120027D0F0D5F0EB0200771204E7019B
:100253001453018E5800E54C00E14201924F019A7C
:0F02630044019A4900FA4301A0550184460184E1
:100272004501844703405000E92D00ED2E01102B6B
:1002820000F123010E2003292A00A94800000108D9
:100292003F3F3F00790AA2D5200314300509B91067
:1002A200020404B9080104A2D52006025001042068
:1002B20002689202B546005034C0E07F2030031934
:1002C2007F30A20272067205500F1202EFC202C202
:1002D20006C205C2087F30800F300503E9C0E01274
:1002E200003E300503D0E0F9D0E0B546CC3005172A
:1002F2007F30B9100C12003E7F583004077F78809F
:1003020003B9080312003E3002057F2D02003E7F32
:10031200202008F87F2B2006F322920280CF286E3D
:10032200756C6C2900D2011200033001F8C2017809
:100332004630D50108F60200A92D50434958120053
:10034200032403B405004001E490033B9312002F01
:0D035200743A12002FD20375460402018E8A
:10048000EF4E6012EF60010EEDBB010B89828A8393
:10049000F0A3DFFCDEFA2289F05007F709DFFCA9A0
:0C04A000F022BBFEFCF309DFFCA9F022F7
:1005190002035FE493A3F8E493A34003F68001F296
:1005290008DFF48029E493A3F85407240CC8C333E3
:10053900C4540F4420C8834004F456800146F6DFB2
:10054900E4800B0102040810204080900740E47EFB
:10055900019360BCA3FF543F30E509541FFEE493A7
:10056900A360010ECF54C025E060A840B8E493A36E
:10057900FAE493A3F8E493A3C8C582C8CAC583CA99
:10058900F0A3C8C582C8CAC583CADFE9DEE780BE51
:0107480000B0
:1004AC00BB010689828A83E0225002E722BBFE024E
:0904BC00E32289828A83E4932281
:1004C500BB010689828A83F0225002F722BBFE0116
:0204D500F32210
:1004D700FAE6FB0808E6F925F0F618E6CA3AF62226
:1004E700D083D082F8E4937012740193700DA3A3A4
:1004F70093F8740193F5828883E4737402936860B8
:06050700EFA3A3A380DFB7
:10061B00EFB40A07740D120626740A309811A899C4
:10062B00B8130CC2983098FDA899C298B811F6303F
:07063B0099FDC299F5992217
:00000001FF
