:0E0BC20054696D653A2000446174653A200064
:10080000120B1D120B9A7B307D597F23120A8E7BAF
:10081000197D127F31120AB37BFF7A0B79C2120A5B
:10082000D8120BFE7BFF7A0B79C9120AD87511001A
:100830007512007513097514007515007516087B7F
:10084000007A00790A1208857D06E4FF120B3DABA1
:1008500008AD09AF0A12092775110075120075134A
:100860000C75140075150075160D7B007A00790B58
:100870001208D67D067F01120B3DAB0DAD0CAF0B00
:0508800012096F80A8C1
:0C0BD000EF4E6007EF1F70F81E80F5224A
:100B9A00120AFD7FD0120BF87F07120BF8E4FF123E
:050BAA000BF8020B7CBA
:060BF800120B5D020BAFC1
:030C0300120A32A0
:010C060022CB
:100A8E008F0E8D0F8B10120AFD7FD0120BF8E4FF24
:100A9E00120BF8AF10120BF8AF0F120BF8AF0E12BD
:050AAE000BF8020B7CB7
:100AB3008F0E8D0F8B10120AFD7FD0120BF87F045F
:100AC300120BF8AF0E120BF8AF0F120BF8AF101298
:050AD3000BF8020B7C92
:100885008B0E8A0F8910120AFD7FD0120BF8E4FF38
:10089500120BF8120B7C120AFD7FD1120BF8120C09
:1008A50003AB14AA15A916EF120A7C120BE8120C59
:1008B50003AB11AA12A913EF120A7C120BE8120C52
:1008C50003AB0EAA0FA910EF120A7C120BF0020B54
:0108D5007CA6
:1008D6008B0E8A0F8910120AFD7FD0120BF87F0447
:1008E600120BF8120B7C120AFD7FD1120BF8120CB8
:1008F60003AB0EAA0FA910EF120A7C120BE8120C1A
:1009060003AB11AA12A913EF120A7C120BE8120C00
:1009160003AB14AA15A916EF120A7C120BF0020BF0
:010926007C54
:100BAF007F327E00120BD0D2907F327E00120BD09C
:030BBF00C29022BF
:100AFD00C290D2917F327E00120BD0D2907F327E87
:100B0D0000120BD0C2917F327E00120BD0C2902208
:100B7C00C2907F327E00120BD0C2917F327E001267
:0E0B8C000BD0D2907F327E00120BD0D291227D
:020B5D008F17F0
:100B5F00E4F518E517339291120BAFE51725E0F581
:0C0B6F00170518E518C3940840E9D2915E
:010B7B002257
:100A3200E4F518D291F5177F327E00120BD0D290D6
:100A42007F327E00120BD0E51825E0F518A291E462
:100A5200334218C2900517E517C3940840D9AF185E
:010A62002271
:080BE800C291120BAFD2912261
:080BF000D291120BAFD290224A
:100B1D007F887E13120BD07F021209F77F281209EE
:100B2D00F77F0C1209F77F011209F77F800209F791
:1009F7008F0EE50E54F0F5A0C2A0C2A1D2A27F01CE
:100A07007E00120BD0C2A27F017E00120BD0E50E32
:100A1700C454F0F5A0C2A0C2A1D2A27F017E0012E9
:0B0A27000BD0C2A27F017E00020BD0AA
:0509B700540F2430FF85
:1009BC008F11E51154F0F5A0D2A0C2A1D2A27F01F3
:1009CC007E00120BD0C2A27F017E00120BD0E5116B
:1009DC00C454F0F5A0D2A0C2A1D2A27F017E001215
:0B09EC000BD0C2A27F017E00020BD0E6
:050BFE007FC00209F7B1
:100B3D00C3EF648094825017EFC4333354C04480A4
:0F0B4D00FFC3ED648094905003ED2FFF1209F762
:010B5C002276
:100AD8008B0E8A0F8910AB0EAA0FA910120A636039
:100AE800130510E5107002050F14F9120A63FF12BE
:050AF80009BC80E222B0
:100927008F0E8D0F8B10E50E7804A2E713D8FB12FC
:1009370009B7E50E1209B77F3A1209BCE50F78042B
:10094700A2E713D8FB1209B7E50F1209B77F3A12CE
:1009570009BCE5107804A2E713D8FB1209B7E51024
:08096700540F2430FF0209BC0B
:10096F008F0E8D0F8B10E50E7804A2E713D8FB12B4
:10097F0009B7E50E1209B77F2F1209BCE50F7804EE
:10098F00A2E713D8FB1209B7E50F1209B77F2F1291
:10099F0009BCE5107804A2E713D8FB1209B7E510DC
:0809AF00540F2430FF0209BCC3
:03000000020BDC14
:0C0BDC00787FE4F6D8FD7581180208004F
:100A6300BB010689828A83E0225002E722BBFE0291
:090A7300E32289828A83E49322C4
:100A7C00BB010689828A83F0225002F722BBFE0159
:020A8C00F32253
:00000001FF
