:04078A002F323000DA
:1004DD00E52675F00A842430FB7D027F01120702A8
:1004ED00E52675F00A84E5F02430FF12072F7F3AD8
:1004FD0012072FE52C75F00A842430FF12072FE523
:10050D002C75F00A84E5F02430FF12072F7F3A1284
:10051D00072FE52B75F00A842430FF12072FE52BEA
:0C052D0075F00A84E5F02430FF02072F6F
:10047D00E52175F00A842430FB7D027F021207020C
:10048D00E52175F00A84E5F02430FF12072F7F2F48
:10049D0012072FE52375F00A842430FF12072FE58C
:1004AD002375F00A84E5F02430FF12072F7BFF7AC5
:1004BD0007798A120668E52475F00A842430FF1244
:1004CD00072FE52475F00A84E5F02430FF02072F8D
:10027F008E368F37208143E53764014536700C0584
:10028F0029E529D394174003E4F529E5376402459E
:10029F0036700C052AE52AD3943B4003E4F52AE592
:1002AF0037640345367002F528E52AFD7C00750E8C
:1002BF0018C200AB28AF29120310208243E5376420
:1002CF00014536700C1529E529C39417500375297C
:1002DF0017E53764024536700C152AE52AC39400DA
:1002EF005003752A3BE537640345367002F528E560
:1002FF002AFD7C00750E18C200AB28AF291203101F
:01030F0022CB
:10039B00E4F508F5091205D0120785120741750E11
:1003AB0018C200E4FB7D2AFC7F14120310750D1498
:1003BB007B087D1E7F02120414750D00750E0075EF
:1003CB000F2C75100075110075122B751300751419
:1003DB00007515227B007A007926120003750D003B
:1003EB00750E00750F2175100075110075122375B0
:1003FB0013007514007515247B007A007925120003
:09040B00E11204DD12047D80B051
:10068B00E4FDFCC3ED9FEC9E5015E4FBFA0BBB00A5
:0F069B00010AEB647B4A70F50DBD00010C80E491
:0106AA00222D
:05078500D2B3D2B22244
:07076900D2B3C2B2C2B322F9
:0C075000D2B2D2B3A2B29201C2B3A20195
:01075C00227A
:10071900E4FEEF3392B2D2B3C2B3EF25E0FF0EBECF
:0507290008F01207506A
:01072E0022A8
:07077000C2B2D2B3C2B322F2
:07077700D2B2D2B3C2B322DB
:10064500E4FFFED2B2D2B3EF25E0FF30B203430799
:1006550001C2B30EBE08EC3001051207708003120B
:02066500077715
:010667002270
:07077E00C2B2D2B3D2B222D5
:1005FC00E4FEFDFCEF30E007EE25E044018003EE65
:10060C0025E0FEEFC313FF0DBD00010CED64084C9B
:04061C0070E2AF06D3
:0106200022B7
:1006AB00AB07C2861205FC8FA0C287D287EBD3940F
:0F06BB000250047F0280027F017E0012068B2214
:10072F00D2861205FC8FA0C287D2877F017E00027E
:02073F00068B27
:020702008B0A60
:10070400BF01047F8080027FC0EF2D14FF1206AB6F
:05071400AF0A02072FEF
:060668008B0A8A0B890CCD
:10066E00E4F50DAB0AAA0BA90C850D827583001259
:0C067E0001C9FF600712072F050D80E77F
:01068A00224D
:0606CA008B338A348935F0
:1006D000BF01047F8080027FC0EF2D14FF1206ABA4
:0906E000AB33AA34A93502066807
:1005D0007F301206AB7F057E0012068B7F3012063D
:1005E000AB7F017E0012068B7F301206AB7F381284
:0C05F00006AB7F011206AB7F0C0206ABCD
:0F074100E4FF120621AD0753057FE4FF0206E92E
:1006E9008F0A8D0B1207697FD0120719AF0A1207FB
:0906F90019AF0B12071902077E6C
:020621008F0A3E
:100623001207697FD0120719AF0A12071912076957
:100633007FD1120719C2011206458F0B12077EAF35
:010643000BAB
:010644002293
:060003008B0A8A0B890C38
:100009001207697FD0120719E4FF1207191207694D
:100019007FD1120719D2011206458F18D201120693
:10002900458F17C2011206458F1612077E53187F96
:10003900E518C4540F75F00AA4FFE518540F2FAB47
:1000490010AA11A9121201F653177FE517C4540F0C
:1000590075F00AA4FFE517540F2FAB0DAA0EA90FCF
:100069001201F6E51630E633AB13AA14A915740C80
:100079001201F6E51630E504D2008002C2005316DB
:100089001FE516C4540F75F00AA4FFE516540F2F87
:10009900AB0AAA0BA90C1201F6803AAB13AA14A950
:1000A9001574181201F653163FE516C4540F75F06E
:1000B9000AA4FFE516540F2FAB0AAA0BA90C1201CB
:1000C900F6AB0AAA0BA90C1201B0C3940C5004C2D6
:0700D900008002D200A2002A
:0100E00022FD
:100310008F0A8C0B8D0C8B0DE50D75F00A84C4547F
:10032000F0FFE50D75F00A84E5F04FF50DAE0BAF6B
:100330000C7C007D0A12022AEFC4F8540FC868FB37
:10034000EEC454F048FAAE0BAF0C7C007D0A1202EA
:100350002AEC4AF50BED4BF50CE50A75F00A84C45E
:1003600054F0FFE50A75F00A84E5F04FF50AE50E52
:10037000B40C09430A40300003430A201207697F86
:10038000D0120719E4FF120719AF0D120719AF0CAD
:0B039000120719AF0A12071902077EBE
:1000E1008B0A8A0B890C1207697FD01207197F03CB
:1000F1001207191207697FD1120719D20112064599
:10010100AB0AAA0BA90CEF1201F6D201120645ABFC
:100111000DAA0EA90FEF1201F6D201120645AB107E
:10012100AA11A912EF1201F6C201120645AB13AAD8
:1001310014A915EF1201F612077EAB0AAA0BA90C3E
:100141001201B054071201F6AB0DAA0EA90F12014C
:10015100B0543F1201F6AB0DAA0EA90F1201B0FF68
:10016100C4540F75F00AA4FEEF540F2E1201F6AB22
:1001710010AA11A9121201B0541F1201F6AB10AA54
:1001810011A9121201B0FFC4540F75F00AA4FEEFB9
:10019100540F2E1201F6AB13AA14A9151201B0FFC8
:0F01A100C4540F75F00AA4FEEF540F2E0201F69E
:100414008F0A8D0B8B0CE50B75F00A84C454F0FF26
:10042400E50B75F00A84E5F04FF50BE50C75F00A61
:1004340084C454F0FFE50C75F00A84E5F04FF50C24
:10044400E50D75F00A84C454F0FFE50D75F00A84D7
:10045400E5F04FF50D1207697FD01207197F0312DB
:100464000719AF0A120719AF0B120719AF0C1207BD
:0904740019AF0D12071902077EF1
:080594008F198B1A8A1B891CC8
:10059C00E4F51E1207697FD0120719AF191207195B
:1005AC00E4F51EE51EC3951D5017AB1AAA1BA91C1A
:1005BC00851E827583001201C9FF120719051E8062
:0405CC00E202077EC2
:080539008F2D8B2E8A2F8930D3
:100541001207697FD0120719AF2D12071912076917
:100551007FD1120719E4F532E53114FFE532C39F6B
:100561005019D201120645AB2EAA2FA9308532822D
:10057100758300EF120208053280DDC201120645C3
:10058100AB2EAA2FA930853282758300EF120208A3
:0305910002077EE0
:0300000002075D97
:0C075D00787FE4F6D8FD75813702039B1D
:1001B000BB010689828A83E0225002E722BBFE024D
:0901C000E32289828A83E4932280
:1001C900BB010CE58229F582E5833AF583E02250EB
:1001D90006E92582F8E622BBFE06E92582F8E22235
:0D01E900E58229F582E5833AF583E493224F
:1001F600BB010689828A83F0225002F722BBFE01E8
:02020600F322E1
:10020800F8BB010DE58229F582E5833AF583E8F02C
:10021800225006E92582C8F622BBFE05E92582C8D8
:02022800F222C0
:10022A00BC000BBE0029EF8DF084FFADF022E4CCB8
:10023A00F875F008EF2FFFEE33FEEC33FCEE9DEC81
:10024A00984005FCEE9DFE0FD5F0E9E4CEFD22EDC7
:10025A00F8F5F0EE8420D21CFEADF075F008EF2F11
:10026A00FFED33FD4007985006D5F0F222C398FD02
:05027A000FD5F0EA229F
:00000001FF
