:0C010C004445767A4F4E453230323000C8
:0E00FE001200307BFF7A01790C12005C80FE4C
:1000BE00C2868FA0C287D287EFD3940250047F02EC
:0A00CE0080027F017E0012007F22F5
:0F00EF00D2868FA0C287D2877F017E0002007F5A
:0200D8008B0F8C
:1000DA00BF01047F8080027FC0EF2D14FF1200BE93
:0500EA00AF0F0200EF62
:06005C008B088A09890AE5
:10006200E4F50BAB08AA09A90A850B827583001275
:0C0072000003FF60071200EF050B80E7A1
:01007E00225F
:06009F008B0C8A0D890E96
:1000A500BF01047F8080027FC0EF2D14FF1200BEC8
:0900B500AB0CAA0DA90E02005CBF
:100030007F301200BE7F057E0012007F7F301200ED
:10004000BE7F017E0012007F7F301200BE7F38121B
:0C00500000BE7F011200BE7F0C0200BE4B
:10007F00E4FDFCC3ED9FEC9E5015E4FBFA0BBB00B7
:0F008F00010AEB647B4A70F50DBD00010C80E4A3
:01009E00223F
:03000000020118E2
:0C011800787FE4F6D8FD75810F0200FE30
:10000300BB010CE58229F582E5833AF583E02250B2
:1000130006E92582F8E622BBFE06E92582F8E222FC
:0D002300E58229F582E5833AF583E4932216
:00000001FF
