:10039B0020940AE475F00A1200443094FD20930B6C
:0C03AB0074FF75F0F61200443093FD2240
:10034900E4F512F513F5147515007516127FE87E9C
:10035900031202BFE4FF120218120003751200759E
:100369001332AB14AA15A91612039BAF1312021864
:0203790080F012
:10037B00E4FDFCC3ED9FEC9E5015E4FBFA0BBB00B8
:0F038B00010AEB647B4A70F50DBD00010C80E4A4
:01039A002240
:1002BF00D2845389F0438901D2A9D2AF8E0E8F0F0A
:1002CF007C007D0212000E8E0A8F0BC3E50F950B7B
:1002DF00F509E50E950AF508AB07AA06EA3395E08E
:1002EF00F9F8C3E49BFFE49AFE740199FDE498FCCE
:1002FF0078081201998F10EA3395E0F9F8C3E49B5F
:10030F00FFE49A740199E4988F11AE08AF09AB0717
:10031F00AA06EA3395E0F9F8C3E49BFFE49AFE746A
:10032F000199FDE498FC78081201998F0CC3E49BA6
:0A033F00FF8F0D85108C85118A22B6
:03000300D28C227A
:03000600C28C2287
:100218008F17E5177005C284C2A922E517B46405D3
:10022800D284C2A922AE0EAF0FAB07AA06EA339555
:10023800E0F9F8AF17EF3395E0FEFDFC12007CE41F
:100248007B64FAF9F81201078E0A8F0BC3E50F9544
:100258000BF509E50E950AF508AB07AA06EA3395EA
:10026800E0F9F8C3E49BFFE49AFE740199FDE49871
:10027800FC78081201998F10EA3395E0F9F8C3E485
:100288009BFFE49A740199E4988F11AE08AF09AB0B
:1002980007AA06EA3395E0F9F8C3E49BFFE49AFE5F
:1002A800740199FDE498FC78081201998F0CC3E455
:0702B8009BFF8F0DD2A9226C
:03000B000203B736
:1003B700B284208407850C8C850D8A3285108C8544
:0303C700118A3266
:030000000203CA2E
:0C03CA00787FE4F6D8FD75811702034926
:10000E00C2D5EC30E709B2D5E4C39DFDE49CFCEE0D
:10001E0030E715B2D5E4C39FFFE49EFE1201ADC3D7
:10002E00E49DFDE49CFC80031201AD30D507C3E4D2
:06003E009FFFE49EFE227C
:10004400BB010789828A83020202500B09C5F0278B
:10005400F7C5F01937F722BBFE0D09F8E325F0F3D5
:10006400C5F019E338F322F889828A837401932551
:08007400F0C5F0F8E493382216
:10007C00E88FF0A4CC8BF0A42CFCE98EF0A42CFC23
:10008C008AF0EDA42CFCEA8EF0A4CDA8F08BF0A4A1
:10009C002DCC3825F0FDE98FF0A42CCD35F0FCEB00
:1000AC008EF0A4FEA9F0EB8FF0A4CFC5F02ECD39C5
:0F00BC00FEE43CFCEAA42DCE35F0FDE43CFC2232
:1000CB0075F008758200EF2FFFEE33FECD33CDCCEC
:1000DB0033CCC58233C5829BED9AEC99E58298406F
:1000EB000CF582EE9BFEED9AFDEC99FC0FD5F0D64C
:1000FB00E4CEFBE4CDFAE4CCF9A88222B800C1B976
:10010B000059BA002DEC8BF084CFCECDFCE5F0CBB3
:10011B00F97818EF2FFFEE33FEED33FDEC33FCEBEC
:10012B0033FB10D703994004EB99FB0FD8E5E4F9A7
:10013B00FA227818EF2FFFEE33FEED33FDEC33FC94
:10014B00C933C910D7059BE99A4007EC9BFCE99A88
:10015B00F90FD8E0E4C9FAE4CCFB2275F010EF2FCD
:10016B00FFEE33FEED33FDCC33CCC833C810D707CD
:10017B009BEC9AE899400AED9BFDEC9AFCE899F808
:0E018B000FD5F0DAE4CDFBE4CCFAE4C8F9229B
:10019900E86010ECA2E713FCED13FDEE13FEEF137C
:0401A900FFD8F02269
:1001AD00BC000BBE0029EF8DF084FFADF022E4CC36
:1001BD00F875F008EF2FFFEE33FEEC33FCEE9DECFF
:1001CD00984005FCEE9DFE0FD5F0E9E4CEFD22ED45
:1001DD00F8F5F0EE8420D21CFEADF075F008EF2F8F
:1001ED00FFED33FD4007985006D5F0F222C398FD80
:0501FD000FD5F0EA221D
:10020200C5F0F8A3E028F0C5F0F8E5821582700287
:060212001583E038F02224
:00000001FF
