:080753004572726F7200430051
:08074A0002490000024C00000E
:1002AB0012075B1207401205828E468F471205829A
:1002BB008E418F421205828E448F451205828E3FEE
:1002CB008F401205828E258F26E5472542FFE54696
:1002DB003541FEE5452FFFE5443EFEE5402FFFE5AA
:1002EB003F3EFEEF65267003EE6525600C7BFF7AC3
:1002FB00077953E4FDFF02067A7B007A00792B7DA8
:10030B00017F0112067A7B007A00792B1206187F87
:10031B00DF1207057BFF7A0779591206187E007FDB
:10032B00147D007B007A00792B1200D27FF47E01C2
:04033B0012063B2249
:0D0726007F0112065B1205561202AB80FB2C
:10063B00E4FDFCC3ED9FEC9E5015E4FBFA0BBB00F5
:0F064B00010AEB647B4A70F50DBD00010C80E4E1
:01065A00227D
:1006DF00758901758CB8758A0CD28C308DFDC28CE2
:0306EF00C28D2297
:1006F200758901758CFF758AF1D28C308DFDC28CA3
:03070200C28D2283
:08075B00C2851206DFD28522DF
:0A0740002085FD3085FD2085FD2297
:10058200E4FFFEFDFC3085FD1206F2EF25E0FFEEF2
:1005920033FE308506EF4401FF80002085FD0DBD4E
:0905A20000010CED64084C70DC52
:0105AB00222D
:05077F00D2B2D2B3224A
:07076300D2B2C2B3C2B22200
:0C073300D2B3D2B2A2B39200C2B2A200B4
:01073F002297
:1006C900E4FEEF3392B3D2B2C2B2EF25E0FF0EBE21
:0506D90008F0120733D8
:0106DE0022F9
:07076A00C2B3D2B2C2B222F9
:07077100D2B3D2B2C2B222E2
:1005F500E4FFFED2B3D2B2EF25E0FF30B3034307E9
:1006050001C2B20EBE08EC30010512076A80031262
:0206150007716B
:0106170022C0
:07077800C2B3D2B2D2B322DA
:1005AC00E4FEFDFCEF30E007EE25E044018003EEB5
:1005BC0025E0FEEFC313FF0DBD00010CED64084CEC
:0405CC0070E2AF0624
:0105D0002208
:10065B00AB07C2861205AC8FA0C287D287EBD394AF
:0F066B000250047F0280027F017E0012063B22B4
:10070500D2861205AC8FA0C287D2877F017E0002F8
:02071500063BA1
:0206B2008B7249
:1006B400BF01047F8080027FC0EF2D14FF12065B10
:0506C400AF7202070502
:060618008B1A8A1B891CED
:10061E00E4F51DAB1AAA1BA91C851D827583001259
:0C062E00001CFF6007120705051D80E797
:01063A00229D
:06067A008B178A18891994
:10068000BF01047F8080027FC0EF2D14FF12065B44
:09069000AB17AA18A919020618FB
:100556007F3012065B7F057E0012063B7F30120657
:100566005B7F017E0012063B7F3012065B7F3812EE
:0C057600065B7F0112065B7F0C02065B37
:0F071700E4FF1205D1AD0753057FE4FF020699F9
:100699008F1E8D1F1207637FD01206C9AF1E120667
:0906A900C9AF1F1206C90207784F
:0205D1008F7029
:1005D3001207637FD01206C9AF701206C9120763F0
:1005E3007FD11206C9C2011205F58F71120778AFC8
:0105F3007196
:0105F40022E4
:0600FE008B088A09890A43
:100104001207637FD01206C9E4FF1206C9120763FF
:100114007FD11206C9D2011205F58F16D20112053C
:10012400F58F15C2011205F58F1412077853167F47
:10013400E516C4540F75F00AA4FFE516540F2FAB4F
:100144000EAA0FA91012004953157FE515C4540FC8
:1001540075F00AA4FFE515540F2FAB0BAA0CA90DDB
:10016400120049E51430E633AB11AA12A913740C3A
:10017400120049E51430E504D2028002C20253148D
:100184001FE514C4540F75F00AA4FFE514540F2F8F
:10019400AB08AA09A90A120049803AAB11AA12A90C
:1001A40013741812004953143FE514C4540F75F026
:1001B4000AA4FFE514540F2FAB08AA09A90A1200D8
:1001C40049AB08AA09A90A120003C3940C5004C23B
:0701D400028002D202A20228
:0101DB002201
:1003CB008F678C688D698B6AE56A75F00A84C454F3
:1003DB00F0FFE56A75F00A84E5F04FF56AAE68AF99
:1003EB00697C007D0A12007DEFC4F8540FC868FBCE
:1003FB00EEC454F048FAAE68AF697C007D0A120077
:10040B007DEC4AF568ED4BF569E56775F00A84C438
:10041B0054F0FFE56775F00A84E5F04FF567E56B7F
:10042B00B40C094367403003034367201207637F13
:10043B00D01206C9E4FF1206C9AF6A1206C9AF692A
:0B044B001206C9AF671206C90207784D
:1001DC008B4F8A5089511207637FD01206C97F0357
:1001EC001206C91207637FD11206C9D2011205F596
:1001FC00AB4FAA50A951EF120049D2011205F5AB31
:10020C0052AA53A954EF120049D2011205F5AB556D
:10021C00AA56A957EF120049C2011205F5AB58AA0C
:10022C0059A95AEF120049120778AB4FAA50A9519D
:10023C001200035407120049AB52AA53A9541200DE
:10024C0003543F120049AB52AA53A954120003FFA6
:10025C00C4540F75F00AA4FEEF540F2E120049ABD4
:10026C0055AA56A957120003541F120049AB55AAA0
:10027C0056A957120003FFC4540F75F00AA4FEEFE1
:10028C00540F2E120049AB58AA59A95A120003FF59
:0F029C00C4540F75F00AA4FEEF540F2E02004950
:100456008F6C8D6D8B6EE56D75F00A84C454F0FF5C
:10046600E56D75F00A84E5F04FF56DE56E75F00AF9
:1004760084C454F0FFE56E75F00A84E5F04FF56E1E
:10048600E56F75F00A84C454F0FFE56F75F00A84D1
:10049600E5F04FF56F1207637FD01206C97F03128E
:1004A60006C9AF6C1206C9AF6D1206C9AF6E120649
:0904B600C9AF6F1206C9020778F4
:08051A008F5B8B5C8A5D895E3A
:10052200E4F5601207637FD01206C9AF5B1206C9F9
:10053200E4F560E560C3955F5017AB5CAA5DA95E08
:1005420085608275830012001CFF1206C905608057
:04055200E202077842
:0804BF008F618B628A6389647E
:1004C7001207637FD01206C9AF611206C91207630C
:1004D7007FD11206C9E4F566E56514FFE566C39F9B
:1004E7005019D2011205F5AB62AA63A96485668229
:1004F700758300EF12005B056680DDC2011205F50A
:10050700AB62AA63A964856682758300EF12005BFC
:0305170002077860
:0300000002033FB9
:0C033F00787FE4F6D8FD75817202038619
:10000300BB010689828A83E0225002E722BBFE02FB
:09001300E32289828A83E493222E
:10001C00BB010CE58229F582E5833AF583E0225099
:10002C0006E92582F8E622BBFE06E92582F8E222E3
:0D003C00E58229F582E5833AF583E49322FD
:10004900BB010689828A83F0225002F722BBFE0196
:02005900F32290
:10005B00F8BB010DE58229F582E5833AF583E8F0DB
:10006B00225006E92582C8F622BBFE05E92582C887
:02007B00F2226F
:10007D00BC000BBE0029EF8DF084FFADF022E4CC67
:10008D00F875F008EF2FFFEE33FEEC33FCEE9DEC30
:10009D00984005FCEE9DFE0FD5F0E9E4CEFD22ED76
:1000AD00F8F5F0EE8420D21CFEADF075F008EF2FC0
:1000BD00FFED33FD4007985006D5F0F222C398FDB1
:0500CD000FD5F0EA224E
:1000D200EF4E6012EF60010EEDBB010B89828A8345
:1000E200F0A3DFFCDEFA2289F05007F709DFFCA952
:0C00F200F022BBFEFCF309DFFCA9F022A9
:10034B00020726E493A3F8E493A34003F68001F29B
:10035B0008DFF48029E493A3F85407240CC8C333B3
:10036B00C4540F4420C8834004F456800146F6DF82
:10037B00E4800B010204081020408090074AE47EC1
:10038B00019360BCA3FF543F30E509541FFEE49377
:10039B00A360010ECF54C025E060A840B8E493A33E
:1003AB00FAE493A3F8E493A3C8C582C8CAC583CA69
:1003BB00F0A3C8C582C8CAC583CADFE9DEE780BE21
:0107520000A6
:00000001FF
